{
  "contractName": "AssetToken",
  "abi": [
    {
      "inputs": [],
      "payable": false,
      "stateMutability": "nonpayable",
      "type": "constructor"
    },
    {
      "anonymous": false,
      "inputs": [
        {
          "indexed": true,
          "internalType": "address",
          "name": "_from",
          "type": "address"
        },
        {
          "indexed": true,
          "internalType": "address",
          "name": "_to",
          "type": "address"
        },
        {
          "indexed": false,
          "internalType": "uint256",
          "name": "_tokenID",
          "type": "uint256"
        }
      ],
      "name": "AssetTransfer",
      "type": "event"
    },
    {
      "anonymous": false,
      "inputs": [
        {
          "indexed": true,
          "internalType": "address",
          "name": "_from",
          "type": "address"
        },
        {
          "indexed": false,
          "internalType": "uint256",
          "name": "_tokenID",
          "type": "uint256"
        }
      ],
      "name": "Create",
      "type": "event"
    },
    {
      "constant": true,
      "inputs": [
        {
          "internalType": "uint256",
          "name": "tokenId",
          "type": "uint256"
        }
      ],
      "name": "ownerOf",
      "outputs": [
        {
          "internalType": "address",
          "name": "",
          "type": "address"
        }
      ],
      "payable": false,
      "stateMutability": "view",
      "type": "function"
    },
    {
      "constant": true,
      "inputs": [],
      "name": "getAllTokens",
      "outputs": [
        {
          "internalType": "uint256[]",
          "name": "",
          "type": "uint256[]"
        }
      ],
      "payable": false,
      "stateMutability": "view",
      "type": "function"
    },
    {
      "constant": true,
      "inputs": [
        {
          "internalType": "address",
          "name": "_owner",
          "type": "address"
        }
      ],
      "name": "tokenCount",
      "outputs": [
        {
          "internalType": "uint256",
          "name": "",
          "type": "uint256"
        }
      ],
      "payable": false,
      "stateMutability": "view",
      "type": "function"
    },
    {
      "constant": false,
      "inputs": [
        {
          "internalType": "bytes32",
          "name": "_tokenStr",
          "type": "bytes32"
        }
      ],
      "name": "createAsset",
      "outputs": [
        {
          "internalType": "uint256",
          "name": "",
          "type": "uint256"
        }
      ],
      "payable": false,
      "stateMutability": "nonpayable",
      "type": "function"
    },
    {
      "constant": true,
      "inputs": [
        {
          "internalType": "address",
          "name": "_user",
          "type": "address"
        }
      ],
      "name": "ownedTokensOfUser",
      "outputs": [
        {
          "internalType": "uint256[]",
          "name": "",
          "type": "uint256[]"
        }
      ],
      "payable": false,
      "stateMutability": "view",
      "type": "function"
    },
    {
      "constant": false,
      "inputs": [
        {
          "internalType": "address",
          "name": "_from",
          "type": "address"
        },
        {
          "internalType": "address",
          "name": "_to",
          "type": "address"
        },
        {
          "internalType": "uint256",
          "name": "tokenID",
          "type": "uint256"
        }
      ],
      "name": "transferAsset",
      "outputs": [],
      "payable": true,
      "stateMutability": "payable",
      "type": "function"
    }
  ],
  "bytecode": "0x608060405234801561001057600080fd5b5033600560006101000a81548173ffffffffffffffffffffffffffffffffffffffff021916908373ffffffffffffffffffffffffffffffffffffffff160217905550610cb6806100616000396000f3fe6080604052600436106100555760003560e01c80632a5c792a1461005a578063439e2e45146100c657806356225a09146101345780636352211e146101995780639019326b14610214578063bfad477d14610263575b600080fd5b34801561006657600080fd5b5061006f610309565b6040518080602001828103825283818151815260200191508051906020019060200280838360005b838110156100b2578082015181840152602081019050610097565b505050509050019250505060405180910390f35b610132600480360360608110156100dc57600080fd5b81019080803573ffffffffffffffffffffffffffffffffffffffff169060200190929190803573ffffffffffffffffffffffffffffffffffffffff16906020019092919080359060200190929190505050610361565b005b34801561014057600080fd5b506101836004803603602081101561015757600080fd5b81019080803573ffffffffffffffffffffffffffffffffffffffff16906020019092919050505061045c565b6040518082815260200191505060405180910390f35b3480156101a557600080fd5b506101d2600480360360208110156101bc57600080fd5b81019080803590602001909291905050506104c4565b604051808273ffffffffffffffffffffffffffffffffffffffff1673ffffffffffffffffffffffffffffffffffffffff16815260200191505060405180910390f35b34801561022057600080fd5b5061024d6004803603602081101561023757600080fd5b810190808035906020019092919050505061058c565b6040518082815260200191505060405180910390f35b34801561026f57600080fd5b506102b26004803603602081101561028657600080fd5b81019080803573ffffffffffffffffffffffffffffffffffffffff16906020019092919050505061081e565b6040518080602001828103825283818151815260200191508051906020019060200280838360005b838110156102f55780820151818401526020810190506102da565b505050509050019250505060405180910390f35b6060600380548060200260200160405190810160405280929190818152602001828054801561035757602002820191906000526020600020905b815481526020019060010190808311610343575b5050505050905090565b61036b838261087f565b6000600260008381526020019081526020016000208190555061038d81610a24565b6103978282610ae9565b6103a081610bae565b816001600083815260200190815260200160002060006101000a81548173ffffffffffffffffffffffffffffffffffffffff021916908373ffffffffffffffffffffffffffffffffffffffff1602179055508173ffffffffffffffffffffffffffffffffffffffff168373ffffffffffffffffffffffffffffffffffffffff167f49419b7bcd06fd32be5c2c39a4521b14bcf3650473f07dcbbbd86343c9eb808f836040518082815260200191505060405180910390a3505050565b6000606061046983610bfa565b8054806020026020016040519081016040528092919081815260200182805480156104b357602002820191906000526020600020905b81548152602001906001019080831161049f575b505050505090508051915050919050565b6000806001600084815260200190815260200160002060009054906101000a900473ffffffffffffffffffffffffffffffffffffffff169050600073ffffffffffffffffffffffffffffffffffffffff168173ffffffffffffffffffffffffffffffffffffffff161415610583576040517f08c379a0000000000000000000000000000000000000000000000000000000008152600401808060200182810382526029815260200180610c596029913960400191505060405180910390fd5b80915050919050565b60003373ffffffffffffffffffffffffffffffffffffffff16600560009054906101000a900473ffffffffffffffffffffffffffffffffffffffff1673ffffffffffffffffffffffffffffffffffffffff1614610651576040517f08c379a00000000000000000000000000000000000000000000000000000000081526004018080602001828103825260168152602001807f4f6e6c79206f776e65722063616e20747269676765720000000000000000000081525060200191505060405180910390fd5b600033905080600160008560001c815260200190815260200160002060006101000a81548173ffffffffffffffffffffffffffffffffffffffff021916908373ffffffffffffffffffffffffffffffffffffffff1602179055506000808273ffffffffffffffffffffffffffffffffffffffff1673ffffffffffffffffffffffffffffffffffffffff16815260200190815260200160002080549050600260008560001c8152602001908152602001600020819055506000808273ffffffffffffffffffffffffffffffffffffffff1673ffffffffffffffffffffffffffffffffffffffff1681526020019081526020016000208360001c9080600181540180825580915050906001820390600052602060002001600090919290919091505550600380549050600460008560001c81526020019081526020016000208190555060038360001c90806001815401808255809150509060018203906000526020600020016000909192909190915055503373ffffffffffffffffffffffffffffffffffffffff167fcc9018de05b5f497ee7618d8830568d8ac2d45d0671b73d8f71c67e824122ec78460001c6040518082815260200191505060405180910390a28260001c915050919050565b606061082982610bfa565b80548060200260200160405190810160405280929190818152602001828054801561087357602002820191906000526020600020905b81548152602001906001019080831161085f575b50505050509050919050565b60006108d660016000808673ffffffffffffffffffffffffffffffffffffffff1673ffffffffffffffffffffffffffffffffffffffff16815260200190815260200160002080549050610c4190919063ffffffff16565b90506000600260008481526020019081526020016000205490508181146109c15760008060008673ffffffffffffffffffffffffffffffffffffffff1673ffffffffffffffffffffffffffffffffffffffff168152602001908152602001600020838154811061094257fe5b90600052602060002001549050806000808773ffffffffffffffffffffffffffffffffffffffff1673ffffffffffffffffffffffffffffffffffffffff168152602001908152602001600020838154811061099957fe5b9060005260206000200181905550816002600083815260200190815260200160002081905550505b6000808573ffffffffffffffffffffffffffffffffffffffff1673ffffffffffffffffffffffffffffffffffffffff168152602001908152602001600020805480610a0857fe5b6001900381819060005260206000200160009055905550505050565b6000610a3f6001600380549050610c4190919063ffffffff16565b9050600060046000848152602001908152602001600020549050600060038381548110610a6857fe5b906000526020600020015490508060038381548110610a8357fe5b90600052602060002001819055508160046000838152602001908152602001600020819055506003805480610ab457fe5b600190038181906000526020600020016000905590556000600460008681526020019081526020016000208190555050505050565b6000808373ffffffffffffffffffffffffffffffffffffffff1673ffffffffffffffffffffffffffffffffffffffff1681526020019081526020016000208054905060026000838152602001908152602001600020819055506000808373ffffffffffffffffffffffffffffffffffffffff1673ffffffffffffffffffffffffffffffffffffffff1681526020019081526020016000208190806001815401808255809150509060018203906000526020600020016000909192909190915055505050565b6003805490506004600083815260200190815260200160002081905550600381908060018154018082558091505090600182039060005260206000200160009091929091909150555050565b60008060008373ffffffffffffffffffffffffffffffffffffffff1673ffffffffffffffffffffffffffffffffffffffff1681526020019081526020016000209050919050565b600082821115610c4d57fe5b81830390509291505056fe4552433732313a206f776e657220717565727920666f72206e6f6e6578697374656e7420746f6b656ea265627a7a72315820f6bbd205fd99dce472ca19a157b6cb0312195d0c69e3d5de4c9f2c9dcaad1c0864736f6c634300050c0032",
  "source": "pragma solidity >=0.5.0;\r\n\r\n//import \"../node_modules/@openzeppelin/contracts/token/ERC721/ERC721Enumerable.sol\";\r\nlibrary SafeMath {\r\n    function sub(uint256 a, uint256 b) internal pure returns (uint256) {\r\n        assert(b <= a);\r\n        return a - b;\r\n    }\r\n    function add(uint256 a, uint256 b) internal pure returns (uint256) {\r\n        uint256 c = a + b;\r\n        assert(c >= a);\r\n        return c;\r\n    }\r\n}\r\n\r\ncontract AssetToken {\r\n    // Mapping from owner to list of owned token IDs\r\n    mapping(address => uint256[]) private _ownedTokens;\r\n\r\n    // Mapping from token ID to owner\r\n    mapping(uint256 => address) private _tokenOwner;\r\n\r\n    // Mapping from token ID to index of the owner tokens list\r\n    mapping(uint256 => uint256) private _ownedTokensIndex;\r\n\r\n    // Array with all token ids, used for enumeration\r\n    uint256[] private _allTokens;\r\n\r\n    // Mapping from token id to position in the allTokens array\r\n    mapping(uint256 => uint256) private _allTokensIndex;\r\n\r\n    address private _contractOwner;\r\n\r\n    //tokenID to its transaction history\r\n    mapping(uint256 => uint256[]) private _tokenHistory;\r\n\r\n    using SafeMath for uint256;\r\n\r\n    event Create(address indexed _from, uint256 _tokenID);\r\n    event AssetTransfer(\r\n        address indexed _from,\r\n        address indexed _to,\r\n        uint256 _tokenID\r\n    );\r\n\r\n    constructor() public {\r\n        _contractOwner = msg.sender;\r\n    }\r\n\r\n    modifier onlyOwner() {\r\n        require(_contractOwner == msg.sender, \"Only owner can trigger\");\r\n        _;\r\n    }\r\n\r\n    function ownerOf(uint256 tokenId) public view returns (address) {\r\n        address owner = _tokenOwner[tokenId];\r\n        require(\r\n            owner != address(0),\r\n            \"ERC721: owner query for nonexistent token\"\r\n        );\r\n        return owner;\r\n    }\r\n\r\n    function getAllTokens() public view returns (uint256[] memory) {\r\n        return _allTokens;\r\n    }\r\n    function tokenCount(address _owner) public view returns (uint256) {\r\n        // address _to = \"0x52Ba9079f9c5b315988EaCE3b2001A8d17fBCA54\";\r\n        uint256[] memory co = _tokensOfOwner(_owner);\r\n        return co.length;\r\n    }\r\n    //below is a system function or ERC-721 contract function\r\n    function _tokensOfOwner(address owner)\r\n        private\r\n        view\r\n        returns (uint256[] storage)\r\n    {\r\n        return _ownedTokens[owner];\r\n    }\r\n\r\n    function createAsset(bytes32 _tokenStr) public onlyOwner returns (uint256) {\r\n        address to = msg.sender;\r\n        _tokenOwner[uint256(_tokenStr)] = to;\r\n        _ownedTokensIndex[uint256(_tokenStr)] = _ownedTokens[to].length;\r\n        _ownedTokens[to].push(uint256(_tokenStr));\r\n\r\n        _allTokensIndex[uint256(_tokenStr)] = _allTokens.length;\r\n        _allTokens.push(uint256(_tokenStr));\r\n\r\n        emit Create(msg.sender, uint256(_tokenStr));\r\n        return uint256(_tokenStr);\r\n    }\r\n\r\n    function ownedTokensOfUser(address _user)\r\n        public\r\n        view\r\n        returns (uint256[] memory)\r\n    {\r\n        return _tokensOfOwner(_user);\r\n    }\r\n\r\n    function transferAsset(address _from, address _to, uint256 tokenID)\r\n        public\r\n        payable\r\n    {\r\n        _removeTokenFromOwnerEnumeration(_from, tokenID);\r\n        _ownedTokensIndex[tokenID] = 0;\r\n        _removeTokenFromAllTokensEnumeration(tokenID);\r\n        _addTokenToOwnerEnumeration(_to, tokenID);\r\n        _addTokenToAllTokensEnumeration(tokenID);\r\n        _tokenOwner[tokenID] = _to;\r\n        emit AssetTransfer(_from, _to, tokenID);\r\n    }\r\n    function _removeTokenFromAllTokensEnumeration(uint256 tokenId) private {\r\n        // To prevent a gap in the tokens array, we store the last token in the index of the token to delete, and\r\n        // then delete the last slot (swap and pop).\r\n\r\n        uint256 lastTokenIndex = _allTokens.length.sub(1);\r\n        uint256 tokenIndex = _allTokensIndex[tokenId];\r\n\r\n        // When the token to delete is the last token, the swap operation is unnecessary. However, since this occurs so\r\n        // rarely (when the last minted token is burnt) that we still do the swap here to avoid the gas cost of adding\r\n        // an 'if' statement (like in _removeTokenFromOwnerEnumeration)\r\n        uint256 lastTokenId = _allTokens[lastTokenIndex];\r\n\r\n        _allTokens[tokenIndex] = lastTokenId; // Move the last token to the slot of the to-delete token\r\n        _allTokensIndex[lastTokenId] = tokenIndex; // Update the moved token's index\r\n\r\n        // Delete the contents at the last position of the array\r\n        _allTokens.pop();\r\n\r\n        _allTokensIndex[tokenId] = 0;\r\n    }\r\n\r\n    function _removeTokenFromOwnerEnumeration(address from, uint256 tokenId)\r\n        private\r\n    {\r\n        // To prevent a gap in from's tokens array, we store the last token in the index of the token to delete, and\r\n        // then delete the last slot (swap and pop).\r\n\r\n        uint256 lastTokenIndex = _ownedTokens[from].length.sub(1);\r\n        uint256 tokenIndex = _ownedTokensIndex[tokenId];\r\n\r\n        // When the token to delete is the last token, the swap operation is unnecessary\r\n        if (tokenIndex != lastTokenIndex) {\r\n            uint256 lastTokenId = _ownedTokens[from][lastTokenIndex];\r\n\r\n            _ownedTokens[from][tokenIndex] = lastTokenId; // Move the last token to the slot of the to-delete token\r\n            _ownedTokensIndex[lastTokenId] = tokenIndex; // Update the moved token's index\r\n        }\r\n\r\n        // Deletes the contents at the last position of the array\r\n        _ownedTokens[from].pop();\r\n\r\n        // Note that _ownedTokensIndex[tokenId] hasn't been cleared: it still points to the old slot (now occupied by\r\n        // lastTokenId, or just over the end of the array if the token was the last one).\r\n\r\n    }\r\n    function _addTokenToOwnerEnumeration(address to, uint256 tokenId) private {\r\n        _ownedTokensIndex[tokenId] = _ownedTokens[to].length;\r\n        _ownedTokens[to].push(tokenId);\r\n    }\r\n\r\n    function _addTokenToAllTokensEnumeration(uint256 tokenId) private {\r\n        _allTokensIndex[tokenId] = _allTokens.length;\r\n        _allTokens.push(tokenId);\r\n    }\r\n}\r\n",
  "sourcePath": "D:/UWO/Project/Project_Initial/Final_Project/EmpireHut/NodeServer/contracts/AssetToken.sol",
  "compiler": {
    "name": "solc",
    "version": "0.5.12+commit.7709ece9.Emscripten.clang"
  },
  "schemaVersion": "3.0.20",
  "updatedAt": "2020-02-19T08:18:09.947Z",
  "networkType": "ethereum",
  "devdoc": {
    "methods": {}
  },
  "userdoc": {
    "methods": {}
  }
}