{
  "contractName": "AssetToken",
  "abi": [
    {
      "inputs": [],
      "payable": false,
      "stateMutability": "nonpayable",
      "type": "constructor"
    },
    {
      "anonymous": false,
      "inputs": [
        {
          "indexed": true,
          "internalType": "address",
          "name": "_from",
          "type": "address"
        },
        {
          "indexed": true,
          "internalType": "address",
          "name": "_to",
          "type": "address"
        },
        {
          "indexed": false,
          "internalType": "uint256",
          "name": "_tokenID",
          "type": "uint256"
        }
      ],
      "name": "AssetTransfer",
      "type": "event"
    },
    {
      "anonymous": false,
      "inputs": [
        {
          "indexed": true,
          "internalType": "address",
          "name": "_from",
          "type": "address"
        },
        {
          "indexed": false,
          "internalType": "uint256",
          "name": "_tokenID",
          "type": "uint256"
        }
      ],
      "name": "Create",
      "type": "event"
    },
    {
      "constant": true,
      "inputs": [
        {
          "internalType": "uint256",
          "name": "tokenId",
          "type": "uint256"
        }
      ],
      "name": "ownerOf",
      "outputs": [
        {
          "internalType": "address",
          "name": "",
          "type": "address"
        }
      ],
      "payable": false,
      "stateMutability": "view",
      "type": "function"
    },
    {
      "constant": true,
      "inputs": [
        {
          "internalType": "address",
          "name": "_owner",
          "type": "address"
        }
      ],
      "name": "tokenCount",
      "outputs": [
        {
          "internalType": "uint256",
          "name": "",
          "type": "uint256"
        }
      ],
      "payable": false,
      "stateMutability": "view",
      "type": "function"
    },
    {
      "constant": false,
      "inputs": [
        {
          "internalType": "bytes32",
          "name": "_tokenStr",
          "type": "bytes32"
        }
      ],
      "name": "createAsset",
      "outputs": [
        {
          "internalType": "uint256",
          "name": "",
          "type": "uint256"
        }
      ],
      "payable": false,
      "stateMutability": "nonpayable",
      "type": "function"
    },
    {
      "constant": true,
      "inputs": [
        {
          "internalType": "address",
          "name": "_user",
          "type": "address"
        }
      ],
      "name": "ownedTokensOfUser",
      "outputs": [
        {
          "internalType": "uint256[]",
          "name": "",
          "type": "uint256[]"
        }
      ],
      "payable": false,
      "stateMutability": "view",
      "type": "function"
    },
    {
      "constant": false,
      "inputs": [
        {
          "internalType": "address",
          "name": "_from",
          "type": "address"
        },
        {
          "internalType": "address",
          "name": "_to",
          "type": "address"
        },
        {
          "internalType": "uint256",
          "name": "tokenID",
          "type": "uint256"
        }
      ],
      "name": "transferAsset",
      "outputs": [],
      "payable": false,
      "stateMutability": "nonpayable",
      "type": "function"
    }
  ],
  "bytecode": "0x608060405234801561001057600080fd5b5033600560006101000a81548173ffffffffffffffffffffffffffffffffffffffff021916908373ffffffffffffffffffffffffffffffffffffffff160217905550610ba7806100616000396000f3fe608060405234801561001057600080fd5b50600436106100575760003560e01c8063439e2e451461005c57806356225a09146100ca5780636352211e146101225780639019326b14610190578063bfad477d146101d2575b600080fd5b6100c86004803603606081101561007257600080fd5b81019080803573ffffffffffffffffffffffffffffffffffffffff169060200190929190803573ffffffffffffffffffffffffffffffffffffffff1690602001909291908035906020019092919050505061026b565b005b61010c600480360360208110156100e057600080fd5b81019080803573ffffffffffffffffffffffffffffffffffffffff16906020019092919050505061034d565b6040518082815260200191505060405180910390f35b61014e6004803603602081101561013857600080fd5b81019080803590602001909291905050506103b5565b604051808273ffffffffffffffffffffffffffffffffffffffff1673ffffffffffffffffffffffffffffffffffffffff16815260200191505060405180910390f35b6101bc600480360360208110156101a657600080fd5b810190808035906020019092919050505061047d565b6040518082815260200191505060405180910390f35b610214600480360360208110156101e857600080fd5b81019080803573ffffffffffffffffffffffffffffffffffffffff16906020019092919050505061070f565b6040518080602001828103825283818151815260200191508051906020019060200280838360005b8381101561025757808201518184015260208101905061023c565b505050509050019250505060405180910390f35b6102758382610770565b61027e81610915565b61028882826109da565b61029181610a9f565b816001600083815260200190815260200160002060006101000a81548173ffffffffffffffffffffffffffffffffffffffff021916908373ffffffffffffffffffffffffffffffffffffffff1602179055508173ffffffffffffffffffffffffffffffffffffffff168373ffffffffffffffffffffffffffffffffffffffff167f49419b7bcd06fd32be5c2c39a4521b14bcf3650473f07dcbbbd86343c9eb808f836040518082815260200191505060405180910390a3505050565b6000606061035a83610aeb565b8054806020026020016040519081016040528092919081815260200182805480156103a457602002820191906000526020600020905b815481526020019060010190808311610390575b505050505090508051915050919050565b6000806001600084815260200190815260200160002060009054906101000a900473ffffffffffffffffffffffffffffffffffffffff169050600073ffffffffffffffffffffffffffffffffffffffff168173ffffffffffffffffffffffffffffffffffffffff161415610474576040517f08c379a0000000000000000000000000000000000000000000000000000000008152600401808060200182810382526029815260200180610b4a6029913960400191505060405180910390fd5b80915050919050565b60003373ffffffffffffffffffffffffffffffffffffffff16600560009054906101000a900473ffffffffffffffffffffffffffffffffffffffff1673ffffffffffffffffffffffffffffffffffffffff1614610542576040517f08c379a00000000000000000000000000000000000000000000000000000000081526004018080602001828103825260168152602001807f4f6e6c79206f776e65722063616e20747269676765720000000000000000000081525060200191505060405180910390fd5b600033905080600160008560001c815260200190815260200160002060006101000a81548173ffffffffffffffffffffffffffffffffffffffff021916908373ffffffffffffffffffffffffffffffffffffffff1602179055506000808273ffffffffffffffffffffffffffffffffffffffff1673ffffffffffffffffffffffffffffffffffffffff16815260200190815260200160002080549050600260008560001c8152602001908152602001600020819055506000808273ffffffffffffffffffffffffffffffffffffffff1673ffffffffffffffffffffffffffffffffffffffff1681526020019081526020016000208360001c9080600181540180825580915050906001820390600052602060002001600090919290919091505550600380549050600460008560001c81526020019081526020016000208190555060038360001c90806001815401808255809150509060018203906000526020600020016000909192909190915055503373ffffffffffffffffffffffffffffffffffffffff167fcc9018de05b5f497ee7618d8830568d8ac2d45d0671b73d8f71c67e824122ec78460001c6040518082815260200191505060405180910390a28260001c915050919050565b606061071a82610aeb565b80548060200260200160405190810160405280929190818152602001828054801561076457602002820191906000526020600020905b815481526020019060010190808311610750575b50505050509050919050565b60006107c760016000808673ffffffffffffffffffffffffffffffffffffffff1673ffffffffffffffffffffffffffffffffffffffff16815260200190815260200160002080549050610b3290919063ffffffff16565b90506000600260008481526020019081526020016000205490508181146108b25760008060008673ffffffffffffffffffffffffffffffffffffffff1673ffffffffffffffffffffffffffffffffffffffff168152602001908152602001600020838154811061083357fe5b90600052602060002001549050806000808773ffffffffffffffffffffffffffffffffffffffff1673ffffffffffffffffffffffffffffffffffffffff168152602001908152602001600020838154811061088a57fe5b9060005260206000200181905550816002600083815260200190815260200160002081905550505b6000808573ffffffffffffffffffffffffffffffffffffffff1673ffffffffffffffffffffffffffffffffffffffff1681526020019081526020016000208054806108f957fe5b6001900381819060005260206000200160009055905550505050565b60006109306001600380549050610b3290919063ffffffff16565b905060006004600084815260200190815260200160002054905060006003838154811061095957fe5b90600052602060002001549050806003838154811061097457fe5b906000526020600020018190555081600460008381526020019081526020016000208190555060038054806109a557fe5b600190038181906000526020600020016000905590556000600460008681526020019081526020016000208190555050505050565b6000808373ffffffffffffffffffffffffffffffffffffffff1673ffffffffffffffffffffffffffffffffffffffff1681526020019081526020016000208054905060026000838152602001908152602001600020819055506000808373ffffffffffffffffffffffffffffffffffffffff1673ffffffffffffffffffffffffffffffffffffffff1681526020019081526020016000208190806001815401808255809150509060018203906000526020600020016000909192909190915055505050565b6003805490506004600083815260200190815260200160002081905550600381908060018154018082558091505090600182039060005260206000200160009091929091909150555050565b60008060008373ffffffffffffffffffffffffffffffffffffffff1673ffffffffffffffffffffffffffffffffffffffff1681526020019081526020016000209050919050565b600082821115610b3e57fe5b81830390509291505056fe4552433732313a206f776e657220717565727920666f72206e6f6e6578697374656e7420746f6b656ea265627a7a723158205bcdaa73cf16d531ace1a4875f25e9ae97c8deab46427d2fdc5f3c4da684a49864736f6c634300050c0032",
  "source": "pragma solidity >=0.5.0;\r\n\r\n//import \"../node_modules/@openzeppelin/contracts/token/ERC721/ERC721Enumerable.sol\";\r\nlibrary SafeMath {\r\n    function sub(uint256 a, uint256 b) internal pure returns (uint256) {\r\n        assert(b <= a);\r\n        return a - b;\r\n    }\r\n    function add(uint256 a, uint256 b) internal pure returns (uint256) {\r\n        uint256 c = a + b;\r\n        assert(c >= a);\r\n        return c;\r\n    }\r\n}\r\n\r\ncontract AssetToken {\r\n    // Mapping from owner to list of owned token IDs\r\n    mapping(address => uint256[]) private _ownedTokens;\r\n\r\n    // Mapping from token ID to owner\r\n    mapping(uint256 => address) private _tokenOwner;\r\n\r\n    // Mapping from token ID to index of the owner tokens list\r\n    mapping(uint256 => uint256) private _ownedTokensIndex;\r\n\r\n    // Array with all token ids, used for enumeration\r\n    uint256[] private _allTokens;\r\n\r\n    // Mapping from token id to position in the allTokens array\r\n    mapping(uint256 => uint256) private _allTokensIndex;\r\n\r\n    address private _contractOwner;\r\n\r\n    //tokenID to its transaction history\r\n    mapping(uint => uint[]) private _tokenHistory;\r\n\r\n    using SafeMath for uint256;\r\n\r\n    event Create(address indexed _from, uint256 _tokenID);\r\n    event AssetTransfer(address indexed _from, address indexed _to,uint256 _tokenID);\r\n\r\n    constructor() public {\r\n        _contractOwner = msg.sender;\r\n    }\r\n\r\n    modifier onlyOwner() {\r\n        require(_contractOwner == msg.sender, \"Only owner can trigger\");\r\n        _;\r\n    }\r\n\r\n    function ownerOf(uint256 tokenId) public view returns (address) {\r\n        address owner = _tokenOwner[tokenId];\r\n        require(\r\n            owner != address(0),\r\n            \"ERC721: owner query for nonexistent token\"\r\n        );\r\n        return owner;\r\n    }\r\n\r\n    function tokenCount(address _owner) public view returns (uint256) {\r\n        // address _to = \"0x52Ba9079f9c5b315988EaCE3b2001A8d17fBCA54\";\r\n        uint256[] memory co = _tokensOfOwner(_owner);\r\n        return co.length;\r\n    }\r\n    //below is a system function or ERC-721 contract function\r\n    function _tokensOfOwner(address owner)\r\n        private\r\n        view\r\n        returns (uint256[] storage)\r\n    {\r\n        return _ownedTokens[owner];\r\n    }\r\n\r\n    function createAsset(bytes32 _tokenStr) public onlyOwner returns (uint256) {\r\n        address to = msg.sender;\r\n        _tokenOwner[uint256(_tokenStr)] = to;\r\n        _ownedTokensIndex[uint256(_tokenStr)] = _ownedTokens[to].length;\r\n        _ownedTokens[to].push(uint256(_tokenStr));\r\n\r\n        _allTokensIndex[uint256(_tokenStr)] = _allTokens.length;\r\n        _allTokens.push(uint256(_tokenStr));\r\n\r\n        emit Create(msg.sender, uint256(_tokenStr));\r\n        return uint256(_tokenStr);\r\n    }\r\n\r\n    function ownedTokensOfUser(address _user)\r\n        public\r\n        view\r\n        returns (uint256[] memory)\r\n    {\r\n        return _tokensOfOwner(_user);\r\n    }\r\n\r\n    function transferAsset(address _from, address _to, uint256 tokenID) public {\r\n        _removeTokenFromOwnerEnumeration(_from, tokenID);\r\n        _removeTokenFromAllTokensEnumeration(tokenID);\r\n        _addTokenToOwnerEnumeration(_to, tokenID);\r\n        _addTokenToAllTokensEnumeration(tokenID);\r\n        _tokenOwner[tokenID] = _to;\r\n        emit AssetTransfer(_from,_to,tokenID);\r\n    }\r\n    function _removeTokenFromAllTokensEnumeration(uint256 tokenId) private {\r\n        // To prevent a gap in the tokens array, we store the last token in the index of the token to delete, and\r\n        // then delete the last slot (swap and pop).\r\n\r\n        uint256 lastTokenIndex = _allTokens.length.sub(1);\r\n        uint256 tokenIndex = _allTokensIndex[tokenId];\r\n\r\n        // When the token to delete is the last token, the swap operation is unnecessary. However, since this occurs so\r\n        // rarely (when the last minted token is burnt) that we still do the swap here to avoid the gas cost of adding\r\n        // an 'if' statement (like in _removeTokenFromOwnerEnumeration)\r\n        uint256 lastTokenId = _allTokens[lastTokenIndex];\r\n\r\n        _allTokens[tokenIndex] = lastTokenId; // Move the last token to the slot of the to-delete token\r\n        _allTokensIndex[lastTokenId] = tokenIndex; // Update the moved token's index\r\n\r\n        // Delete the contents at the last position of the array\r\n        _allTokens.pop();\r\n\r\n        _allTokensIndex[tokenId] = 0;\r\n    }\r\n\r\n    function _removeTokenFromOwnerEnumeration(address from, uint256 tokenId)\r\n        private\r\n    {\r\n        // To prevent a gap in from's tokens array, we store the last token in the index of the token to delete, and\r\n        // then delete the last slot (swap and pop).\r\n\r\n        uint256 lastTokenIndex = _ownedTokens[from].length.sub(1);\r\n        uint256 tokenIndex = _ownedTokensIndex[tokenId];\r\n\r\n        // When the token to delete is the last token, the swap operation is unnecessary\r\n        if (tokenIndex != lastTokenIndex) {\r\n            uint256 lastTokenId = _ownedTokens[from][lastTokenIndex];\r\n\r\n            _ownedTokens[from][tokenIndex] = lastTokenId; // Move the last token to the slot of the to-delete token\r\n            _ownedTokensIndex[lastTokenId] = tokenIndex; // Update the moved token's index\r\n        }\r\n\r\n        // Deletes the contents at the last position of the array\r\n        _ownedTokens[from].pop();\r\n\r\n        // Note that _ownedTokensIndex[tokenId] hasn't been cleared: it still points to the old slot (now occupied by\r\n        // lastTokenId, or just over the end of the array if the token was the last one).\r\n\r\n    }\r\n    function _addTokenToOwnerEnumeration(address to, uint256 tokenId) private {\r\n        _ownedTokensIndex[tokenId] = _ownedTokens[to].length;\r\n        _ownedTokens[to].push(tokenId);\r\n    }\r\n\r\n    function _addTokenToAllTokensEnumeration(uint256 tokenId) private {\r\n        _allTokensIndex[tokenId] = _allTokens.length;\r\n        _allTokens.push(tokenId);\r\n    }\r\n}\r\n",
  "sourcePath": "D:/UWO/Project/Project_Initial/Final_Project/EmpireHut/nodeserver/contracts/AssetToken.sol",
  "compiler": {
    "name": "solc",
    "version": "0.5.12+commit.7709ece9.Emscripten.clang"
  },
  "schemaVersion": "3.0.20",
  "updatedAt": "2020-02-17T01:10:24.592Z",
  "networkType": "ethereum",
  "devdoc": {
    "methods": {}
  },
  "userdoc": {
    "methods": {}
  }
}