{
  "contractName": "EMPToken",
  "abi": [
    {
      "inputs": [],
      "payable": false,
      "stateMutability": "nonpayable",
      "type": "constructor"
    },
    {
      "anonymous": false,
      "inputs": [
        {
          "indexed": true,
          "internalType": "address",
          "name": "_owner",
          "type": "address"
        },
        {
          "indexed": true,
          "internalType": "address",
          "name": "_spender",
          "type": "address"
        },
        {
          "indexed": false,
          "internalType": "uint256",
          "name": "_value",
          "type": "uint256"
        }
      ],
      "name": "Approval",
      "type": "event"
    },
    {
      "anonymous": false,
      "inputs": [
        {
          "indexed": true,
          "internalType": "address",
          "name": "_from",
          "type": "address"
        },
        {
          "indexed": true,
          "internalType": "address",
          "name": "_to",
          "type": "address"
        },
        {
          "indexed": false,
          "internalType": "uint256",
          "name": "_tokens",
          "type": "uint256"
        },
        {
          "indexed": false,
          "internalType": "string",
          "name": "_desc",
          "type": "string"
        }
      ],
      "name": "Transfer",
      "type": "event"
    },
    {
      "constant": true,
      "inputs": [],
      "name": "name",
      "outputs": [
        {
          "internalType": "string",
          "name": "",
          "type": "string"
        }
      ],
      "payable": false,
      "stateMutability": "pure",
      "type": "function"
    },
    {
      "constant": true,
      "inputs": [],
      "name": "symbol",
      "outputs": [
        {
          "internalType": "string",
          "name": "",
          "type": "string"
        }
      ],
      "payable": false,
      "stateMutability": "pure",
      "type": "function"
    },
    {
      "constant": true,
      "inputs": [],
      "name": "decimals",
      "outputs": [
        {
          "internalType": "uint8",
          "name": "",
          "type": "uint8"
        }
      ],
      "payable": false,
      "stateMutability": "pure",
      "type": "function"
    },
    {
      "constant": true,
      "inputs": [],
      "name": "totalSupply",
      "outputs": [
        {
          "internalType": "uint256",
          "name": "",
          "type": "uint256"
        }
      ],
      "payable": false,
      "stateMutability": "view",
      "type": "function"
    },
    {
      "constant": true,
      "inputs": [],
      "name": "getOwner",
      "outputs": [
        {
          "internalType": "address",
          "name": "",
          "type": "address"
        }
      ],
      "payable": false,
      "stateMutability": "view",
      "type": "function"
    },
    {
      "constant": true,
      "inputs": [
        {
          "internalType": "address",
          "name": "_owner",
          "type": "address"
        }
      ],
      "name": "balanceOf",
      "outputs": [
        {
          "internalType": "uint256",
          "name": "balance",
          "type": "uint256"
        }
      ],
      "payable": false,
      "stateMutability": "view",
      "type": "function"
    },
    {
      "constant": false,
      "inputs": [
        {
          "internalType": "address",
          "name": "_to",
          "type": "address"
        },
        {
          "internalType": "uint256",
          "name": "_value",
          "type": "uint256"
        },
        {
          "internalType": "string",
          "name": "_desc",
          "type": "string"
        }
      ],
      "name": "transfer",
      "outputs": [
        {
          "internalType": "bool",
          "name": "success",
          "type": "bool"
        }
      ],
      "payable": true,
      "stateMutability": "payable",
      "type": "function"
    },
    {
      "constant": false,
      "inputs": [
        {
          "internalType": "address",
          "name": "_user",
          "type": "address"
        }
      ],
      "name": "registerUser",
      "outputs": [
        {
          "internalType": "bool",
          "name": "success",
          "type": "bool"
        }
      ],
      "payable": true,
      "stateMutability": "payable",
      "type": "function"
    },
    {
      "constant": false,
      "inputs": [
        {
          "internalType": "address",
          "name": "_spender",
          "type": "address"
        },
        {
          "internalType": "uint256",
          "name": "_value",
          "type": "uint256"
        }
      ],
      "name": "approve",
      "outputs": [
        {
          "internalType": "bool",
          "name": "success",
          "type": "bool"
        }
      ],
      "payable": false,
      "stateMutability": "nonpayable",
      "type": "function"
    },
    {
      "constant": false,
      "inputs": [
        {
          "internalType": "address",
          "name": "_from",
          "type": "address"
        },
        {
          "internalType": "address",
          "name": "_to",
          "type": "address"
        },
        {
          "internalType": "uint256",
          "name": "_value",
          "type": "uint256"
        }
      ],
      "name": "transferFrom",
      "outputs": [
        {
          "internalType": "bool",
          "name": "success",
          "type": "bool"
        }
      ],
      "payable": false,
      "stateMutability": "nonpayable",
      "type": "function"
    }
  ],
  "bytecode": "0x608060405234801561001057600080fd5b506000620186a090508060008190555033600360006101000a81548173ffffffffffffffffffffffffffffffffffffffff021916908373ffffffffffffffffffffffffffffffffffffffff1602179055503373ffffffffffffffffffffffffffffffffffffffff16600073ffffffffffffffffffffffffffffffffffffffff167fcd6e659e4c2e75c3bfe47fecaccf39aeb368116a0ee52afb532e07f6cba6c0d1836040518082815260200180602001828103825260078152602001807f496e697469616c000000000000000000000000000000000000000000000000008152506020019250505060405180910390a3506114ba806101106000396000f3fe6080604052600436106100915760003560e01c8063313ce56711610059578063313ce567146102b357806356b8c724146102e457806370a08231146103e1578063893d20e81461044657806395d89b411461049d57610091565b806306fdde0314610096578063095ea7b31461012657806318160ddd146101995780632199d5cd146101c457806323b872dd14610220575b600080fd5b3480156100a257600080fd5b506100ab61052d565b6040518080602001828103825283818151815260200191508051906020019080838360005b838110156100eb5780820151818401526020810190506100d0565b50505050905090810190601f1680156101185780820380516001836020036101000a031916815260200191505b509250505060405180910390f35b34801561013257600080fd5b5061017f6004803603604081101561014957600080fd5b81019080803573ffffffffffffffffffffffffffffffffffffffff1690602001909291908035906020019092919050505061056a565b604051808215151515815260200191505060405180910390f35b3480156101a557600080fd5b506101ae6106ea565b6040518082815260200191505060405180910390f35b610206600480360360208110156101da57600080fd5b81019080803573ffffffffffffffffffffffffffffffffffffffff1690602001909291905050506106f3565b604051808215151515815260200191505060405180910390f35b34801561022c57600080fd5b506102996004803603606081101561024357600080fd5b81019080803573ffffffffffffffffffffffffffffffffffffffff169060200190929190803573ffffffffffffffffffffffffffffffffffffffff169060200190929190803590602001909291905050506109e4565b604051808215151515815260200191505060405180910390f35b3480156102bf57600080fd5b506102c8610f97565b604051808260ff1660ff16815260200191505060405180910390f35b6103c7600480360360608110156102fa57600080fd5b81019080803573ffffffffffffffffffffffffffffffffffffffff169060200190929190803590602001909291908035906020019064010000000081111561034157600080fd5b82018360208201111561035357600080fd5b8035906020019184600183028401116401000000008311171561037557600080fd5b91908080601f016020809104026020016040519081016040528093929190818152602001838380828437600081840152601f19601f820116905080830192505050505050509192919290505050610f9f565b604051808215151515815260200191505060405180910390f35b3480156103ed57600080fd5b506104306004803603602081101561040457600080fd5b81019080803573ffffffffffffffffffffffffffffffffffffffff169060200190929190505050611377565b6040518082815260200191505060405180910390f35b34801561045257600080fd5b5061045b6113c0565b604051808273ffffffffffffffffffffffffffffffffffffffff1673ffffffffffffffffffffffffffffffffffffffff16815260200191505060405180910390f35b3480156104a957600080fd5b506104b26113ea565b6040518080602001828103825283818151815260200191508051906020019080838360005b838110156104f25780820151818401526020810190506104d7565b50505050905090810190601f16801561051f5780820380516001836020036101000a031916815260200191505b509250505060405180910390f35b60606040518060400160405280600981526020017f456d706972654875740000000000000000000000000000000000000000000000815250905090565b60006105fb82600260003373ffffffffffffffffffffffffffffffffffffffff1673ffffffffffffffffffffffffffffffffffffffff16815260200190815260200160002060008673ffffffffffffffffffffffffffffffffffffffff1673ffffffffffffffffffffffffffffffffffffffff1681526020019081526020016000205461142790919063ffffffff16565b600260003373ffffffffffffffffffffffffffffffffffffffff1673ffffffffffffffffffffffffffffffffffffffff16815260200190815260200160002060008573ffffffffffffffffffffffffffffffffffffffff1673ffffffffffffffffffffffffffffffffffffffff168152602001908152602001600020819055508273ffffffffffffffffffffffffffffffffffffffff163373ffffffffffffffffffffffffffffffffffffffff167f8c5be1e5ebec7d5bd14f71427d1e84f3dd0314c0f7b2291e5b200ac8c7c3b925846040518082815260200191505060405180910390a36001905092915050565b60008054905090565b6000806000600160008573ffffffffffffffffffffffffffffffffffffffff1673ffffffffffffffffffffffffffffffffffffffff16815260200190815260200160002054146107ab576040517f08c379a00000000000000000000000000000000000000000000000000000000081526004018080602001828103825260138152602001807f5573657220616c7265616479204578697374730000000000000000000000000081525060200191505060405180910390fd5b3373ffffffffffffffffffffffffffffffffffffffff16600360009054906101000a900473ffffffffffffffffffffffffffffffffffffffff1673ffffffffffffffffffffffffffffffffffffffff1614156108a157620186a0905061085981600160008673ffffffffffffffffffffffffffffffffffffffff1673ffffffffffffffffffffffffffffffffffffffff1681526020019081526020016000205461142790919063ffffffff16565b600160008573ffffffffffffffffffffffffffffffffffffffff1673ffffffffffffffffffffffffffffffffffffffff1681526020019081526020016000208190555061093c565b6103e890506108f881600160008673ffffffffffffffffffffffffffffffffffffffff1673ffffffffffffffffffffffffffffffffffffffff1681526020019081526020016000205461142790919063ffffffff16565b600160008573ffffffffffffffffffffffffffffffffffffffff1673ffffffffffffffffffffffffffffffffffffffff168152602001908152602001600020819055505b8273ffffffffffffffffffffffffffffffffffffffff163373ffffffffffffffffffffffffffffffffffffffff167fcd6e659e4c2e75c3bfe47fecaccf39aeb368116a0ee52afb532e07f6cba6c0d18360405180828152602001806020018281038252600c8152602001807f526567697374726174696f6e00000000000000000000000000000000000000008152506020019250505060405180910390a36001915050919050565b60008073ffffffffffffffffffffffffffffffffffffffff168473ffffffffffffffffffffffffffffffffffffffff161415610a88576040517f08c379a00000000000000000000000000000000000000000000000000000000081526004018080602001828103825260128152602001807f4164647265737320697320696e76616c6964000000000000000000000000000081525060200191505060405180910390fd5b600073ffffffffffffffffffffffffffffffffffffffff168373ffffffffffffffffffffffffffffffffffffffff161415610b2b576040517f08c379a00000000000000000000000000000000000000000000000000000000081526004018080602001828103825260128152602001807f4164647265737320697320696e76616c6964000000000000000000000000000081525060200191505060405180910390fd5b81600160008673ffffffffffffffffffffffffffffffffffffffff1673ffffffffffffffffffffffffffffffffffffffff168152602001908152602001600020541015610be0576040517f08c379a00000000000000000000000000000000000000000000000000000000081526004018080602001828103825260178152602001807f496e73756666696369656e742046756e6473206865726500000000000000000081525060200191505060405180910390fd5b600260003373ffffffffffffffffffffffffffffffffffffffff1673ffffffffffffffffffffffffffffffffffffffff16815260200190815260200160002060008473ffffffffffffffffffffffffffffffffffffffff1673ffffffffffffffffffffffffffffffffffffffff16815260200190815260200160002054821115610cb5576040517f08c379a000000000000000000000000000000000000000000000000000000000815260040180806020018281038252602b81526020018061145b602b913960400191505060405180910390fd5b610d0782600160008773ffffffffffffffffffffffffffffffffffffffff1673ffffffffffffffffffffffffffffffffffffffff1681526020019081526020016000205461144390919063ffffffff16565b600160008673ffffffffffffffffffffffffffffffffffffffff1673ffffffffffffffffffffffffffffffffffffffff16815260200190815260200160002081905550610d9c82600160008673ffffffffffffffffffffffffffffffffffffffff1673ffffffffffffffffffffffffffffffffffffffff1681526020019081526020016000205461142790919063ffffffff16565b600160008573ffffffffffffffffffffffffffffffffffffffff1673ffffffffffffffffffffffffffffffffffffffff16815260200190815260200160002081905550610e6e82600260003373ffffffffffffffffffffffffffffffffffffffff1673ffffffffffffffffffffffffffffffffffffffff16815260200190815260200160002060008673ffffffffffffffffffffffffffffffffffffffff1673ffffffffffffffffffffffffffffffffffffffff1681526020019081526020016000205461144390919063ffffffff16565b600260003373ffffffffffffffffffffffffffffffffffffffff1673ffffffffffffffffffffffffffffffffffffffff16815260200190815260200160002060008573ffffffffffffffffffffffffffffffffffffffff1673ffffffffffffffffffffffffffffffffffffffff168152602001908152602001600020819055508273ffffffffffffffffffffffffffffffffffffffff168473ffffffffffffffffffffffffffffffffffffffff167fcd6e659e4c2e75c3bfe47fecaccf39aeb368116a0ee52afb532e07f6cba6c0d1846040518082815260200180602001828103825260088152602001807f5472616e736665720000000000000000000000000000000000000000000000008152506020019250505060405180910390a3600190509392505050565b600080905090565b600082600160003373ffffffffffffffffffffffffffffffffffffffff1673ffffffffffffffffffffffffffffffffffffffff168152602001908152602001600020541015611056576040517f08c379a00000000000000000000000000000000000000000000000000000000081526004018080602001828103825260128152602001807f496e73756666696369656e742046756e6473000000000000000000000000000081525060200191505060405180910390fd5b60008310156110cd576040517f08c379a000000000000000000000000000000000000000000000000000000000815260040180806020018281038252601e8152602001807f56616c75652063616e6e6f74206265206c657373207468616e207a65726f000081525060200191505060405180910390fd5b600073ffffffffffffffffffffffffffffffffffffffff168473ffffffffffffffffffffffffffffffffffffffff161415611170576040517f08c379a00000000000000000000000000000000000000000000000000000000081526004018080602001828103825260128152602001807f4164647265737320697320696e76616c6964000000000000000000000000000081525060200191505060405180910390fd5b6111c283600160003373ffffffffffffffffffffffffffffffffffffffff1673ffffffffffffffffffffffffffffffffffffffff1681526020019081526020016000205461144390919063ffffffff16565b600160003373ffffffffffffffffffffffffffffffffffffffff1673ffffffffffffffffffffffffffffffffffffffff1681526020019081526020016000208190555061125783600160008773ffffffffffffffffffffffffffffffffffffffff1673ffffffffffffffffffffffffffffffffffffffff1681526020019081526020016000205461142790919063ffffffff16565b600160008673ffffffffffffffffffffffffffffffffffffffff1673ffffffffffffffffffffffffffffffffffffffff168152602001908152602001600020819055508373ffffffffffffffffffffffffffffffffffffffff163373ffffffffffffffffffffffffffffffffffffffff167fcd6e659e4c2e75c3bfe47fecaccf39aeb368116a0ee52afb532e07f6cba6c0d185856040518083815260200180602001828103825283818151815260200191508051906020019080838360005b83811015611331578082015181840152602081019050611316565b50505050905090810190601f16801561135e5780820380516001836020036101000a031916815260200191505b50935050505060405180910390a3600190509392505050565b6000600160008373ffffffffffffffffffffffffffffffffffffffff1673ffffffffffffffffffffffffffffffffffffffff168152602001908152602001600020549050919050565b6000600360009054906101000a900473ffffffffffffffffffffffffffffffffffffffff16905090565b60606040518060400160405280600381526020017f454d500000000000000000000000000000000000000000000000000000000000815250905090565b60008082840190508381101561143957fe5b8091505092915050565b60008282111561144f57fe5b81830390509291505056fe526571756573746564207472616e736665722069732067726561746572207468616e20617070726f766564a265627a7a7231582034e89c1aeb862c263b78331b6fdba72d12f86fc76d9043f46f2795eda2ae8f4364736f6c634300050c0032",
  "source": "pragma solidity >=0.5.0;\r\n// variable names should be different from function names or else we will get compilation errors\r\n//reading data from ethereum is free but writing data is costly\r\n// implementing as per ethereum standards\r\n//https://eips.ethereum.org/EIPS/eip-20\r\n// This is a basic ERC-20 TOken Implementation\r\nlibrary SafeMath {\r\n    function sub(uint256 a, uint256 b) internal pure returns (uint256) {\r\n      assert(b <= a);\r\n      return a - b;\r\n    }\r\n    function add(uint256 a, uint256 b) internal pure returns (uint256) {\r\n      uint256 c = a + b;\r\n      assert(c >= a);\r\n      return c;\r\n    }\r\n}\r\n\r\n\r\ncontract EMPToken{\r\n\r\n    uint256 private _totalSupply;\r\n    mapping(address => uint256) _balances;\r\n    mapping(address => mapping (address => uint256)) _allowance;\r\n    // first address is approvers, second address is \"_spender\" and third is how much value are we\r\n    //allowing him to take from our wallet\r\n    string private constant _name = \"EmpireHut\";\r\n    string private constant _symbol = \"EMP\";\r\n    uint8 private constant _decimals = 0;\r\n    address private _tokenowner;\r\n    using SafeMath for uint256;\r\n    event Transfer(address indexed _from, address indexed _to, uint256 _tokens,string _desc);\r\n\r\n    event Approval(address indexed _owner, address indexed _spender, uint256 _value);\r\n\r\n    modifier onlyOwner(){\r\n        require(_tokenowner == msg.sender,\"Only owner can trigger\");\r\n        _;\r\n    }\r\n\r\n    //in case you want to use arguments here.the values for this arguments must be passed in the respective\r\n    //contract migration deploy file.\r\n    constructor() public {\r\n        uint256 _initialSupply = 100000;\r\n        _totalSupply = _initialSupply;\r\n       // _balances[msg.sender] = _initialSupply;\r\n        _tokenowner = msg.sender;\r\n         emit Transfer(address(0),msg.sender,_initialSupply,\"Initial\");\r\n        }\r\n\r\n    //“memory” : this is used to hold temporary values.\r\n    //It is erased between (external) function calls and is cheaper to use.\r\n    function name() public pure returns (string memory){\r\n        return _name;\r\n    }\r\n    function symbol() public pure returns (string memory)\r\n    {\r\n        return _symbol;\r\n    }\r\n    function decimals() public pure returns (uint8)\r\n    {\r\n        return _decimals;\r\n    }\r\n    //view simply means “this function is read-only.”\r\n    function totalSupply() public view returns (uint256) {\r\n        return _totalSupply;\r\n    }\r\n    function getOwner() public view returns (address){\r\n        return _tokenowner;\r\n    }\r\n    function balanceOf(address _owner) public view returns (uint256 balance){\r\n        return _balances[_owner];\r\n    }\r\n    function transfer(address _to, uint256 _value,string memory _desc) public payable returns (bool success){\r\n        //require - if condition is true,go ahead or else throw the string\r\n        require(_balances[msg.sender] >= _value,\"Insufficient Funds\");\r\n        require(_value>=0,\"Value cannot be less than zero\");\r\n        require(_to != address(0),\"Address is invalid\");\r\n        _balances[msg.sender] = _balances[msg.sender].sub(_value);\r\n        _balances[_to] = _balances[_to].add(_value);\r\n        emit Transfer(msg.sender,_to,_value,_desc);\r\n         return true;\r\n    }\r\n\r\n    function registerUser(address _user) public payable returns (bool success){\r\n        uint256 _value;\r\n        require(_balances[_user] == 0,'User already Exists');\r\n        if(_tokenowner == msg.sender){\r\n            _value = 100000;\r\n            _balances[_user] = _balances[_user].add(_value);\r\n        }\r\n        else{\r\n            _value = 1000;\r\n            _balances[_user] = _balances[_user].add(_value);\r\n        }\r\n        emit Transfer(msg.sender,_user,_value,\"Registration\");\r\n        return true;\r\n    }\r\n\r\n   function approve(address _spender, uint256 _value) public returns (bool success)\r\n   {\r\n       // we are giving permission to \"_spender\" to take our\r\n       //tokens and transfer it to someone\r\n       // here msg.sender=owner. he is authorizing \"_spender\" to take some of his tokens\r\n       // and give to someone.\r\n       //allowance\r\n       _allowance[msg.sender][_spender] = _allowance[msg.sender][_spender].add(_value);\r\n       //approve event\r\n       emit Approval(msg.sender,_spender,_value);\r\n       return true;\r\n   }\r\n\r\n   function transferFrom(address _from, address _to, uint256 _value) public returns (bool success){\r\n       //_from=owner account\r\n       // msg.sender='_spender' who was authorized by owner\r\n        require(_from != address(0),\"Address is invalid\");\r\n        require(_to != address(0),\"Address is invalid\");\r\n        // just to check if this function is called by the person who has been approved by the\r\n        //owner in the \"approve\" function\r\n        //require(_allowance[_from][msg.sender] > 0,\"Unauthorized request\");\r\n        require(_balances[_from] >= _value,\"Insufficient Funds here\");\r\n        require(_value <= _allowance[msg.sender][_to],\"Requested transfer is greater than approved\");\r\n        _balances[_from] = _balances[_from].sub(_value);\r\n        _balances[_to] = _balances[_to].add(_value);\r\n        _allowance[msg.sender][_to] = _allowance[msg.sender][_to].sub(_value);\r\n        emit Transfer(_from,_to,_value,\"Transfer\");\r\n        return true;\r\n   }\r\n}",
  "sourcePath": "D:/UWO/Project/Project_Initial/Final_Project/EmpireHut/NodeServer/contracts/EMPToken.sol",
  "compiler": {
    "name": "solc",
    "version": "0.5.12+commit.7709ece9.Emscripten.clang"
  },
  "schemaVersion": "3.0.20",
  "updatedAt": "2020-02-19T08:18:09.919Z",
  "networkType": "ethereum",
  "devdoc": {
    "methods": {}
  },
  "userdoc": {
    "methods": {}
  }
}